{
  "contractName": "BarterAgreement",
  "abi": [
    {
      "anonymous": false,
      "inputs": [
        {
          "indexed": false,
          "name": "owner",
          "type": "address"
        },
        {
          "indexed": false,
          "name": "buyer",
          "type": "address"
        },
        {
          "indexed": false,
          "name": "id",
          "type": "uint256"
        },
        {
          "indexed": false,
          "name": "price",
          "type": "uint256"
        },
        {
          "indexed": false,
          "name": "completed",
          "type": "bool"
        },
        {
          "indexed": false,
          "name": "inProgress",
          "type": "bool"
        }
      ],
      "name": "AgreementLog",
      "type": "event"
    },
    {
      "anonymous": false,
      "inputs": [
        {
          "indexed": false,
          "name": "value",
          "type": "uint256"
        }
      ],
      "name": "PaymentLog",
      "type": "event"
    },
    {
      "constant": false,
      "inputs": [
        {
          "name": "price",
          "type": "uint256"
        }
      ],
      "name": "newAgreement",
      "outputs": [],
      "payable": false,
      "stateMutability": "nonpayable",
      "type": "function"
    },
    {
      "constant": true,
      "inputs": [
        {
          "name": "agreementID",
          "type": "uint256"
        }
      ],
      "name": "getAgreement",
      "outputs": [
        {
          "name": "owner",
          "type": "address"
        },
        {
          "name": "buyer",
          "type": "address"
        },
        {
          "name": "price",
          "type": "uint256"
        },
        {
          "name": "completed",
          "type": "bool"
        },
        {
          "name": "inProgress",
          "type": "bool"
        }
      ],
      "payable": false,
      "stateMutability": "view",
      "type": "function"
    },
    {
      "constant": true,
      "inputs": [],
      "name": "getAgreementLength",
      "outputs": [
        {
          "name": "length",
          "type": "uint256"
        }
      ],
      "payable": false,
      "stateMutability": "view",
      "type": "function"
    },
    {
      "constant": false,
      "inputs": [
        {
          "name": "id",
          "type": "uint256"
        }
      ],
      "name": "updateAgreement",
      "outputs": [],
      "payable": false,
      "stateMutability": "nonpayable",
      "type": "function"
    },
    {
      "constant": false,
      "inputs": [
        {
          "name": "id",
          "type": "uint256"
        }
      ],
      "name": "completeAgreement",
      "outputs": [],
      "payable": true,
      "stateMutability": "payable",
      "type": "function"
    }
  ],
  "bytecode": "0x6060604052341561000f57600080fd5b6109d08061001e6000396000f30060606040526004361061006d576000357c0100000000000000000000000000000000000000000000000000000000900463ffffffff1680634f9f6fe6146100725780638458cf8e14610125578063ec4590831461013d578063f64e6b7614610160578063f685541b14610189575b600080fd5b341561007d57600080fd5b61009360048080359060200190919050506101ac565b604051808673ffffffffffffffffffffffffffffffffffffffff1673ffffffffffffffffffffffffffffffffffffffff1681526020018573ffffffffffffffffffffffffffffffffffffffff1673ffffffffffffffffffffffffffffffffffffffff16815260200184815260200183151515158152602001821515151581526020019550505050505060405180910390f35b61013b600480803590602001909190505061025b565b005b341561014857600080fd5b61015e60048080359060200190919050506104df565b005b341561016b57600080fd5b6101736106f3565b6040518082815260200191505060405180910390f35b341561019457600080fd5b6101aa60048080359060200190919050506106ff565b005b6000806000806000806000878154811015156101c457fe5b906000526020600020906004020190508060000160009054906101000a900473ffffffffffffffffffffffffffffffffffffffff168160010160009054906101000a900473ffffffffffffffffffffffffffffffffffffffff1682600201548360030160009054906101000a900460ff168460030160019054906101000a900460ff16955095509550955095505091939590929450565b6000808281548110151561026b57fe5b906000526020600020906004020190503373ffffffffffffffffffffffffffffffffffffffff168160010160009054906101000a900473ffffffffffffffffffffffffffffffffffffffff1673ffffffffffffffffffffffffffffffffffffffff161415156102d957600080fd5b8060000160009054906101000a900473ffffffffffffffffffffffffffffffffffffffff1673ffffffffffffffffffffffffffffffffffffffff166108fc349081150290604051600060405180830381858888f19350505050151561033d57600080fd5b60018160030160006101000a81548160ff02191690831515021790555060008160030160016101000a81548160ff0219169083151502179055507fb87aa4e3b62e0e2103581aff766467cb9be1a4e8d01b08adf77db2c25f098f728160000160009054906101000a900473ffffffffffffffffffffffffffffffffffffffff168260010160009054906101000a900473ffffffffffffffffffffffffffffffffffffffff168484600201548560030160009054906101000a900460ff168660030160019054906101000a900460ff16604051808773ffffffffffffffffffffffffffffffffffffffff1673ffffffffffffffffffffffffffffffffffffffff1681526020018673ffffffffffffffffffffffffffffffffffffffff1673ffffffffffffffffffffffffffffffffffffffff1681526020018581526020018481526020018315151515815260200182151515158152602001965050505050505060405180910390a17f6e5e738ccc49ad7d5fb6e52e1e49ba8dbad47958a84c5784119d8660e59f0106346040518082815260200191505060405180910390a15050565b60006001600080548060010182816104f791906108d5565b9160005260206000209060040201600060a0604051908101604052803373ffffffffffffffffffffffffffffffffffffffff168152602001600073ffffffffffffffffffffffffffffffffffffffff16815260200187815260200160001515815260200160001515815250909190915060008201518160000160006101000a81548173ffffffffffffffffffffffffffffffffffffffff021916908373ffffffffffffffffffffffffffffffffffffffff16021790555060208201518160010160006101000a81548173ffffffffffffffffffffffffffffffffffffffff021916908373ffffffffffffffffffffffffffffffffffffffff1602179055506040820151816002015560608201518160030160006101000a81548160ff02191690831515021790555060808201518160030160016101000a81548160ff02191690831515021790555050500390507fb87aa4e3b62e0e2103581aff766467cb9be1a4e8d01b08adf77db2c25f098f723360008385600080604051808773ffffffffffffffffffffffffffffffffffffffff1673ffffffffffffffffffffffffffffffffffffffff1681526020018673ffffffffffffffffffffffffffffffffffffffff1681526020018581526020018481526020018315151515815260200182151515158152602001965050505050505060405180910390a15050565b60008080549050905090565b6000808281548110151561070f57fe5b90600052602060002090600402019050600115158160030160009054906101000a900460ff1615151415151561074457600080fd5b338160010160006101000a81548173ffffffffffffffffffffffffffffffffffffffff021916908373ffffffffffffffffffffffffffffffffffffffff16021790555060018160030160016101000a81548160ff0219169083151502179055507fb87aa4e3b62e0e2103581aff766467cb9be1a4e8d01b08adf77db2c25f098f728160000160009054906101000a900473ffffffffffffffffffffffffffffffffffffffff168260010160009054906101000a900473ffffffffffffffffffffffffffffffffffffffff168484600201548560030160009054906101000a900460ff168660030160019054906101000a900460ff16604051808773ffffffffffffffffffffffffffffffffffffffff1673ffffffffffffffffffffffffffffffffffffffff1681526020018673ffffffffffffffffffffffffffffffffffffffff1673ffffffffffffffffffffffffffffffffffffffff1681526020018581526020018481526020018315151515815260200182151515158152602001965050505050505060405180910390a15050565b815481835581811511610902576004028160040283600052602060002091820191016109019190610907565b5b505050565b6109a191905b8082111561099d57600080820160006101000a81549073ffffffffffffffffffffffffffffffffffffffff02191690556001820160006101000a81549073ffffffffffffffffffffffffffffffffffffffff021916905560028201600090556003820160006101000a81549060ff02191690556003820160016101000a81549060ff02191690555060040161090d565b5090565b905600a165627a7a723058203ab8b7029daf5f331c05cb4b532de83c350f83a372d4d671118d2cb62f7161fe0029",
  "source": "pragma solidity ^0.4.18;\n// checked syntax in remix\ncontract BarterAgreement {\n    event AgreementLog(\n        address owner,\n        address buyer,\n        uint256 id,\n        uint256 price,\n        bool completed,\n        bool inProgress\n    );\n    event PaymentLog(\n        uint256 value\n    );\n    Agreement[] agreements;\n    // storage Agreement[] agreements; //\"Storage\" was causing errors\n    //event console(address sender)\n    struct Agreement {\n        address owner;\n        address buyer;\n        uint256 price;\n        bool completed;\n        bool inProgress;\n    }\n    // Create a new agreement\n    function newAgreement(uint256 price) public {\n        uint id = agreements.push(Agreement(msg.sender, 0x0000, price, false, false))\n        - 1;\n        AgreementLog(msg.sender, 0x0000, id, price, false, false);\n        //capital A agreement returns 1 instead of 0 because it's the next open spot\n        //Agreement invoked would return a new instance of that obj\n        // return id;\n        //explore returning agreements.length instead?\n    }\n    // Get existing agreement by ID. We can't return a struct so we can to return each data value one by one\n    function getAgreement(uint agreementID) public view returns (\n      address owner,\n      address buyer,\n      uint price,\n      bool completed,\n      bool inProgress\n    )\n    {\n        Agreement storage agreement = agreements[agreementID];\n        return (\n          agreement.owner,\n          agreement.buyer,\n          agreement.price,\n          agreement.completed,\n          agreement.inProgress\n        );\n    }\n    //Return number of agreements in storage on the blockchain\n    function getAgreementLength() public view returns (uint length) {\n        return agreements.length;\n    }\n    // Update agreement\n    function updateAgreement (uint id) public {\n        Agreement storage agreement = agreements[id];\n        require(agreement.completed != true);\n        agreement.buyer = msg.sender;\n        agreement.inProgress = true;\n        AgreementLog(agreement.owner, agreement.buyer, id, agreement.price, agreement.completed, agreement.inProgress);\n    }\n    //Complete agreement\n    function completeAgreement(uint id) public payable {\n        Agreement storage agreement = agreements[id];\n        require(agreement.buyer == msg.sender);\n        agreement.owner.transfer(msg.value);\n        agreement.completed = true;\n        agreement.inProgress = false;\n        AgreementLog(agreement.owner, agreement.buyer, id, agreement.price, agreement.completed, agreement.inProgress);\n        PaymentLog(msg.value);\n    }\n}\n",
  "sourcePath": "/Users/khoehne/Documents/Fullstack/Senior/new-kids-on-the-blockchain/contracts/BarterAgreement.sol",
  "compiler": {
    "name": "solc",
    "version": "0.4.19+commit.c4cbbb05.Emscripten.clang"
  },
  "schemaVersion": "2.0.0",
  "updatedAt": "2018-03-29T13:27:00.626Z"
}